:100000000C9462000C9471030C944A030C948A00C3
:100010000C948A000C948A000C948A000C948A0038
:100020000C948A000C948A000C948A000C948A0028
:100030000C948A000C948A000C948A000C948A0018
:100040000C9400030C948A000C94BE030C94980347
:100050000C948A000C948A000C948A000C948A00F8
:100060000C94F0030C948A0000000000230026008A
:10007000290000000008000201000003040700003E
:1000800000000000000000000000250028002B00F8
:1000900000000000240027002A00040404040404D3
:1000A0000404020202020202030303030303010227
:1000B00004081020408001020408102001020408F6
:1000C00010201E0511241FBECFEFD8E0DEBFCDBF2C
:1000D00011E0A0E0B1E0E6E0FEE002C005900D9284
:1000E000A033B107D9F722E0A0E3B1E001C01D922F
:1000F000A939B207E1F710E0C2E6D0E004C02197C9
:10010000FE010E94F606C136D107C9F70E945705C5
:100110000C9401070C940000CF93DF9390E0FC0156
:10012000E255FF4F2491FC01E656FF4F849188234E
:10013000C1F090E0880F991FFC01E057FF4FC59177
:10014000D491FC01EA57FF4FA591B4919FB7F89461
:100150008881322F309583238883EC91E22BEC93B6
:100160009FBFDF91CF910895833081F028F48130D3
:1001700099F08230A1F008958730A9F08830B9F065
:100180008430D1F4809180008F7D03C08091800005
:100190008F7780938000089584B58F7702C084B5EF
:1001A0008F7D84BD08958091B0008F7703C08091CA
:1001B000B0008F7D8093B0000895CF93DF93282FF8
:1001C00030E0F901EE58FF4F8491F901E255FF4FFD
:1001D000D491F901E656FF4FC491CC2389F08111E7
:1001E0000E94B400EC2FF0E0EE0FFF1FEA57FF4F24
:1001F000A591B4918FB7F894EC91ED2BEC938FBF50
:10020000DF91CF910895CF93DF93282F30E0F9014C
:10021000EE58FF4F8491F901E255FF4FD491F90157
:10022000E656FF4FC491CC2391F081110E94B40097
:10023000EC2FF0E0EE0FFF1FE859FF4FA591B491AE
:10024000EC91ED2381E090E021F480E002C080E0B9
:1002500090E0DF91CF9108951092E6011092E501B0
:100260000895089508950895CF92DF92EF92FF9236
:100270000F931F93CF93DF936C017A018B01C0E042
:10028000D0E0CE15DF0581F0D8016D918D01D6014A
:10029000ED91FC910190F081E02DC6010995892B2B
:1002A00011F02196EECF7E01C701DF91CF911F9112
:1002B0000F91FF90EF90DF90CF900895FC01538D48
:1002C000448D252F30E0842F90E0821B930B541730
:1002D00010F0CF96089501970895FC01918D828DBD
:1002E000981761F0828DDF01A80FB11D5D968C918A
:1002F000928D9F5F9F73928F90E008958FEF9FEF95
:100300000895FC01918D828D981731F0828DE80F50
:10031000F11D858D90E008958FEF9FEF0895FC010A
:10032000918D228D892F90E0805C9F4F821B9109D7
:100330008F739927089580EF91E00E948F0121E04B
:10034000892B09F420E0822F0895FC01848DDF01C0
:10035000A80FB11DA35ABF4F2C91848D90E0019638
:100360008F739927848FA689B7892C93A089B18927
:100370008C91837080648C93938D848D981306C0C8
:100380000288F389E02D80818F7D80830895EF922C
:10039000FF920F931F93CF93DF93EC0181E0888F3F
:1003A0009B8D8C8D981305C0E889F989808185FD26
:1003B00026C0F62E0B8D10E00F5F1F4F0F73112715
:1003C000E02E8C8DE8120CC00FB607FCFACFE8893E
:1003D000F989808185FFF5CFCE010E94A501F1CF7B
:1003E0008B8DFE01E80FF11DE35AFF4FF0829FB79E
:1003F000F8940B8FEA89FB89808180620AC09FB7DD
:10040000F894EE89FF896083E889F9898081837097
:10041000806480839FBF81E090E0DF91CF911F9146
:100420000F91FF90EF900895CF93DF93EC01888DAB
:100430008823C9F0EA89FB89808185FD05C0A889E8
:10044000B9898C9186FD0FC00FB607FCF5CF80816E
:1004500085FFF2CFA889B9898C9185FFEDCFCE01B8
:100460000E94A501E7CFDF91CF91089580E090E051
:10047000892B29F00E949B0181110C9400000895A2
:1004800085ED8093BC008091BC0084FDFCCF109270
:10049000C001089540917001262F30E0240F311DD6
:1004A00021323105DCF42091C0012430C9F4FC0173
:1004B00080E090E0861758F4309170012191DC01C2
:1004C000A05BBE4FA30FB11D2C930196F3CF80917B
:1004D0007001680F6093700180E0089581E00895D5
:1004E00082E008950895E091980180919701E817BE
:1004F00030F4F0E0E05DFE4F808190E008958FEFF2
:100500009FEF08959091980180919701981750F46A
:10051000E92FF0E0E05DFE4F208130E09F5F909397
:10052000980102C02FEF3FEFC90108958091970114
:1005300090E020919801821B91090895CF92DF925B
:10054000EF92FF920F931F93CF93DF937C01CB0128
:100550008A012091C101222389F0EB016B01C40EB5
:10056000D51ECC15DD0569F06991D701ED91FC919F
:100570000190F081E02DC7010995F3CF642F0E940F
:100580004A02C801DF91CF911F910F91FF90EF9028
:10059000DF90CF900895CF93DF931F92CDB7DEB752
:1005A00069832091C1012223D1F02091E4012032FE
:1005B00040F021E030E0FC013383228380E090E0D2
:1005C00015C08091C201E82FF0E0ED53FE4F9981F4
:1005D00090838F5F8093C2018093E40105C061E046
:1005E000CE0101960E944A0281E090E00F90DF91D7
:1005F000CF910895089580E090E008950E94FC0650
:100600001F920F920FB60F9211242F933F938F9347
:100610009F93AF93BF938091EC019091ED01A091D6
:10062000EE01B091EF013091EB0123E0230F2D3764
:1006300020F40196A11DB11D05C026E8230F0296E6
:10064000A11DB11D2093EB018093EC019093ED016E
:10065000A093EE01B093EF018091E7019091E80142
:10066000A091E901B091EA010196A11DB11D80930D
:10067000E7019093E801A093E901B093EA01BF91EB
:10068000AF919F918F913F912F910F900FBE0F903F
:100690001F9018951F920F920FB60F9211242F934F
:1006A0003F934F935F936F937F938F939F93AF93FA
:1006B000BF93EF93FF93E0910201F091030109953D
:1006C000FF91EF91BF91AF919F918F917F916F912A
:1006D0005F914F913F912F910F900FBE0F901F9000
:1006E00018951F920F920FB60F9211242F933F93DC
:1006F0004F935F936F937F938F939F93AF93BF932A
:10070000EF93FF93E0910001F09101010995FF91B2
:10071000EF91BF91AF919F918F917F916F915F9179
:100720004F913F912F910F900FBE0F901F901895F2
:100730001F920F920FB60F9211242F933F934F9356
:100740005F936F937F938F939F93AF93BF93EF9339
:10075000FF9380EF91E00E94A501FF91EF91BF917F
:10076000AF919F918F917F916F915F914F913F9149
:100770002F910F900FBE0F901F9018951F920F9200
:100780000FB60F9211242F938F939F93EF93FF93A4
:10079000E0910002F09101028081E0910602F09167
:1007A000070282FD12C09081809109028F5F8F73D2
:1007B00020910A02821751F0E0910902F0E0E05125
:1007C000FE4F958F8093090201C08081FF91EF91C8
:1007D0009F918F912F910F900FBE0F901F901895A2
:1007E0001F920F920FB60F9211242F933F934F93A6
:1007F0005F936F937F938F939F93AF93BF93EF9389
:10080000FF938091B900887F803609F49CC068F519
:10081000883209F45BC090F4803109F454C038F494
:10082000882309F4F6C0883009F44DC0F6C0883139
:1008300009F44CC0803209F45DC0EFC0803409F483
:1008400068C048F4803309F455C0883309F0E5C026
:100850008093BE01D8C0803509F44FC0883509F4B3
:100860005DC0883409F0D9C0D6C0883909F4C7C042
:10087000A8F4883709F467C038F4883609F463C0EF
:10088000803709F460C0C9C0883809F4B8C080391D
:1008900009F45FC0803809F0C0C05BC0803B09F438
:1008A00086C038F4803A09F466C0883A09F47FC0FB
:1008B000B4C0803C09F4A7C0883C09F4A4C0883BBC
:1008C00009F48AC0AAC080919B0110C09091BD011B
:1008D0008091BC01981770F5E091BD0181E08E0F09
:1008E0008093BD01F0E0E456FE4F80818093BB0011
:1008F00085EC86C08093BE018EC0E091BD0181E091
:100900008E0F8093BD018091BB00F0E0E456FE4F56
:1009100080839091BD018091BC016EC0E091BD01CA
:1009200081E08E0F8093BD018091BB00F0E0E45622
:10093000FE4F80838091BF0181116DC081E0809363
:100940009A0184EA61C083E08093C0011092920111
:10095000CFCF80919201803208F051C0E091920196
:1009600081E08E0F809392018091BB00F0E0EE5801
:10097000FE4F8083BDCF85EC8093BC001092C001F8
:1009800080919201803230F4E0919201F0E0EE58D3
:10099000FE4F10826091920170E0E0919301F0911E
:1009A000940182E791E009951092920136C084E0AB
:1009B0008093C0011092710110927001E091950135
:1009C000F0919601099580917001811105C081E037
:1009D0008093700110925001E091710181E08E0FBF
:1009E00080937101F0E0E05BFE4F80818093BB005B
:1009F0009091710180917001981708F479CF85E882
:100A00008093BC000AC085EC8093BC001092C001AA
:100A100004C01092BE010E944002FF91EF91BF916D
:100A2000AF919F918F917F916F915F914F913F9186
:100A30002F910F900FBE0F901F901895E0EFF1E0EF
:100A40001382128288EE93E0A0E0B0E08483958365
:100A5000A683B78320E131E03183208325EC30E0A9
:100A60003587248724EC30E03787268720EC30E078
:100A7000318B208B21EC30E0338B228B22EC30E069
:100A8000358B248B26EC30E0378B268B118E128E23
:100A9000138E148EEDE8F2E0138212828483958324
:100AA000A683B78382E291E091838083089578944E
:100AB00084B5826084BD84B5816084BD85B5826063
:100AC00085BD85B5816085BD80916E008160809314
:100AD0006E0010928100809181008260809381007D
:100AE000809181008160809381008091800081608D
:100AF000809380008091B10084608093B1008091E8
:100B0000B00081608093B00080917A00846080930F
:100B10007A0080917A00826080937A0080917A00D6
:100B2000816080937A0080917A00806880937A0057
:100B30001092C100E0910002F091010282E08083F6
:100B4000E091FC01F091FD011082E091FE01F09135
:100B5000FF018FEC808310920802E0910402F09173
:100B6000050286E08083E0910202F0910302808119
:100B700080618083E0910202F091030280818860AD
:100B80008083E0910202F09103028081806880837B
:100B9000E0910202F091030280818F7D80831092A8
:100BA0009801109297011092C2011092E4011092E4
:100BB000C00181E08093BF0110929A0182E10E94FE
:100BC000DD0083E10E94DD008091B9008E7F80937B
:100BD000B9008091B9008D7F8093B90088E480933B
:100BE000B80085E48093BC0081E391E09093960186
:100BF0008093950182E391E0909394018093930117
:100C000082E00E948C0085E00E948C0086E00E94B9
:100C10008C001092E6011092E5018CE291E0909335
:100C2000010180930001809169008C7F8260809334
:100C30006900E89AC1E0D2E612E00FEF35EEF32E3C
:100C400045ECE42E85E00E940301019719F0C12CC8
:100C5000D12C03C022E0C22ED12C86E00E940301D9
:100C600041E050E0019711F040E050E04C295D294F
:100C70002091990130E04217530709F444C0809154
:100C8000E5019091E601F901E85FFE4F8C3D65E0DA
:100C900096078CF4608170E04617570711F4C296EE
:100CA0001AC0F901EC5FFE4F208130E04217530774
:100CB000B1F4C29710C0608170E04617570711F475
:100CC000409609C0F901EC5FFE4F208130E04217E9
:100CD000530729F440979093E6018093E5014093F0
:100CE00099018091E5019091E601811520E192073B
:100CF00014F08FEF9FE097FF02C080E090E09093A8
:100D0000E6018093E501C090E501D090E601C09333
:100D1000C101D093E3011092C2011092E40160E49A
:100D20008DE892E00E94CB02B60184E0759567954C
:100D30008A95E1F78DE892E00E94CB02B60194E03B
:100D4000660F771F9A95E1F78DE892E00E94CB023B
:100D50009091E401913208F040C08091C00181116E
:100D6000FCCF1093C001C093BF010093BE0110924D
:100D7000BD019093BC01A3ECB1E0ECE9F1E0981760
:100D800021F02D9121938F5FFACF10929B018091DA
:100D90009B01846C80939B0180919A01813069F45E
:100DA00010929A0180919B018093BB008091BC00BE
:100DB00083FDF8CFE092BC0002C0F092BC008091AD
:100DC000C0018230E1F38091BE018F3F31F080910C
:100DD000BE01803211F08091BE011092C2011092CA
:100DE000E4011092C1010E9436022CCFEE0FFF1FCA
:100DF0000590F491E02D099481E090E0F8940C9432
:060E00000107F894FFCF8A
:100E06003301330101030002020003010000000068
:100E1600C70134015E0114028F016D0181010000DA
:100E26000000CB029E02FB0272029602820273024D
:00000001FF
